{"abi":[{"type":"constructor","inputs":[],"stateMutability":"nonpayable"},{"type":"function","name":"approve","inputs":[{"name":"to","type":"address","internalType":"address"},{"name":"tokenId","type":"uint256","internalType":"uint256"}],"outputs":[],"stateMutability":"nonpayable"},{"type":"function","name":"balanceOf","inputs":[{"name":"owner","type":"address","internalType":"address"}],"outputs":[{"name":"","type":"uint256","internalType":"uint256"}],"stateMutability":"view"},{"type":"function","name":"getApproved","inputs":[{"name":"tokenId","type":"uint256","internalType":"uint256"}],"outputs":[{"name":"","type":"address","internalType":"address"}],"stateMutability":"view"},{"type":"function","name":"isApprovedForAll","inputs":[{"name":"owner","type":"address","internalType":"address"},{"name":"operator","type":"address","internalType":"address"}],"outputs":[{"name":"","type":"bool","internalType":"bool"}],"stateMutability":"view"},{"type":"function","name":"mintNft","inputs":[{"name":"recipient","type":"address","internalType":"address"},{"name":"tokenURI","type":"string","internalType":"string"}],"outputs":[{"name":"","type":"uint256","internalType":"uint256"}],"stateMutability":"nonpayable"},{"type":"function","name":"name","inputs":[],"outputs":[{"name":"","type":"string","internalType":"string"}],"stateMutability":"view"},{"type":"function","name":"owner","inputs":[],"outputs":[{"name":"","type":"address","internalType":"address"}],"stateMutability":"view"},{"type":"function","name":"ownerOf","inputs":[{"name":"tokenId","type":"uint256","internalType":"uint256"}],"outputs":[{"name":"","type":"address","internalType":"address"}],"stateMutability":"view"},{"type":"function","name":"renounceOwnership","inputs":[],"outputs":[],"stateMutability":"nonpayable"},{"type":"function","name":"safeTransferFrom","inputs":[{"name":"from","type":"address","internalType":"address"},{"name":"to","type":"address","internalType":"address"},{"name":"tokenId","type":"uint256","internalType":"uint256"}],"outputs":[],"stateMutability":"nonpayable"},{"type":"function","name":"safeTransferFrom","inputs":[{"name":"from","type":"address","internalType":"address"},{"name":"to","type":"address","internalType":"address"},{"name":"tokenId","type":"uint256","internalType":"uint256"},{"name":"data","type":"bytes","internalType":"bytes"}],"outputs":[],"stateMutability":"nonpayable"},{"type":"function","name":"setApprovalForAll","inputs":[{"name":"operator","type":"address","internalType":"address"},{"name":"approved","type":"bool","internalType":"bool"}],"outputs":[],"stateMutability":"nonpayable"},{"type":"function","name":"supportsInterface","inputs":[{"name":"interfaceId","type":"bytes4","internalType":"bytes4"}],"outputs":[{"name":"","type":"bool","internalType":"bool"}],"stateMutability":"view"},{"type":"function","name":"symbol","inputs":[],"outputs":[{"name":"","type":"string","internalType":"string"}],"stateMutability":"view"},{"type":"function","name":"tokenURI","inputs":[{"name":"tokenId","type":"uint256","internalType":"uint256"}],"outputs":[{"name":"","type":"string","internalType":"string"}],"stateMutability":"view"},{"type":"function","name":"totalSupply","inputs":[],"outputs":[{"name":"","type":"uint256","internalType":"uint256"}],"stateMutability":"view"},{"type":"function","name":"transferFrom","inputs":[{"name":"from","type":"address","internalType":"address"},{"name":"to","type":"address","internalType":"address"},{"name":"tokenId","type":"uint256","internalType":"uint256"}],"outputs":[],"stateMutability":"nonpayable"},{"type":"function","name":"transferOwnership","inputs":[{"name":"newOwner","type":"address","internalType":"address"}],"outputs":[],"stateMutability":"nonpayable"},{"type":"event","name":"Approval","inputs":[{"name":"owner","type":"address","indexed":true,"internalType":"address"},{"name":"approved","type":"address","indexed":true,"internalType":"address"},{"name":"tokenId","type":"uint256","indexed":true,"internalType":"uint256"}],"anonymous":false},{"type":"event","name":"ApprovalForAll","inputs":[{"name":"owner","type":"address","indexed":true,"internalType":"address"},{"name":"operator","type":"address","indexed":true,"internalType":"address"},{"name":"approved","type":"bool","indexed":false,"internalType":"bool"}],"anonymous":false},{"type":"event","name":"BatchMetadataUpdate","inputs":[{"name":"_fromTokenId","type":"uint256","indexed":false,"internalType":"uint256"},{"name":"_toTokenId","type":"uint256","indexed":false,"internalType":"uint256"}],"anonymous":false},{"type":"event","name":"MetadataUpdate","inputs":[{"name":"_tokenId","type":"uint256","indexed":false,"internalType":"uint256"}],"anonymous":false},{"type":"event","name":"OwnershipTransferred","inputs":[{"name":"previousOwner","type":"address","indexed":true,"internalType":"address"},{"name":"newOwner","type":"address","indexed":true,"internalType":"address"}],"anonymous":false},{"type":"event","name":"Transfer","inputs":[{"name":"from","type":"address","indexed":true,"internalType":"address"},{"name":"to","type":"address","indexed":true,"internalType":"address"},{"name":"tokenId","type":"uint256","indexed":true,"internalType":"uint256"}],"anonymous":false},{"type":"error","name":"ERC721IncorrectOwner","inputs":[{"name":"sender","type":"address","internalType":"address"},{"name":"tokenId","type":"uint256","internalType":"uint256"},{"name":"owner","type":"address","internalType":"address"}]},{"type":"error","name":"ERC721InsufficientApproval","inputs":[{"name":"operator","type":"address","internalType":"address"},{"name":"tokenId","type":"uint256","internalType":"uint256"}]},{"type":"error","name":"ERC721InvalidApprover","inputs":[{"name":"approver","type":"address","internalType":"address"}]},{"type":"error","name":"ERC721InvalidOperator","inputs":[{"name":"operator","type":"address","internalType":"address"}]},{"type":"error","name":"ERC721InvalidOwner","inputs":[{"name":"owner","type":"address","internalType":"address"}]},{"type":"error","name":"ERC721InvalidReceiver","inputs":[{"name":"receiver","type":"address","internalType":"address"}]},{"type":"error","name":"ERC721InvalidSender","inputs":[{"name":"sender","type":"address","internalType":"address"}]},{"type":"error","name":"ERC721NonexistentToken","inputs":[{"name":"tokenId","type":"uint256","internalType":"uint256"}]},{"type":"error","name":"OwnableInvalidOwner","inputs":[{"name":"owner","type":"address","internalType":"address"}]},{"type":"error","name":"OwnableUnauthorizedAccount","inputs":[{"name":"account","type":"address","internalType":"address"}]}],"bytecode":{"object":"0x608060405234801562000010575f80fd5b50336040518060400160405280600a8152602001692cb5399026b0b9ba32b960b11b81525060405180604001604052806003815260200162594a5360e81b815250815f9081620000619190620001a2565b506001620000708282620001a2565b5050506001600160a01b038116620000a157604051631e4fbdf760e01b81525f600482015260240160405180910390fd5b620000ac81620000b3565b506200026e565b600780546001600160a01b038381166001600160a01b0319831681179093556040519116919082907f8be0079c531659141344cd1fd0a4f28419497f9722a3daafe3b4186f6b6457e0905f90a35050565b634e487b7160e01b5f52604160045260245ffd5b600181811c908216806200012d57607f821691505b6020821081036200014c57634e487b7160e01b5f52602260045260245ffd5b50919050565b601f8211156200019d57805f5260205f20601f840160051c81016020851015620001795750805b601f840160051c820191505b818110156200019a575f815560010162000185565b50505b505050565b81516001600160401b03811115620001be57620001be62000104565b620001d681620001cf845462000118565b8462000152565b602080601f8311600181146200020c575f8415620001f45750858301515b5f19600386901b1c1916600185901b17855562000266565b5f85815260208120601f198616915b828110156200023c578886015182559484019460019091019084016200021b565b50858210156200025a57878501515f19600388901b60f8161c191681555b505060018460011b0185555b505050505050565b6113d6806200027c5f395ff3fe608060405234801561000f575f80fd5b5060043610610111575f3560e01c806370a082311161009e578063a22cb4651161006e578063a22cb46514610228578063b88d4fde1461023b578063c87b56dd1461024e578063e985e9c514610261578063f2fde38b14610274575f80fd5b806370a08231146101f4578063715018a6146102075780638da5cb5b1461020f57806395d89b4114610220575f80fd5b806311f87b19116100e457806311f87b191461019257806318160ddd146101b357806323b872dd146101bb57806342842e0e146101ce5780636352211e146101e1575f80fd5b806301ffc9a71461011557806306fdde031461013d578063081812fc14610152578063095ea7b31461017d575b5f80fd5b610128610123366004610ed3565b610287565b60405190151581526020015b60405180910390f35b6101456102b1565b6040516101349190610f3b565b610165610160366004610f4d565b610340565b6040516001600160a01b039091168152602001610134565b61019061018b366004610f7f565b610367565b005b6101a56101a036600461102e565b610376565b604051908152602001610134565b6008546101a5565b6101906101c936600461108c565b6103b0565b6101906101dc36600461108c565b61043e565b6101656101ef366004610f4d565b61045d565b6101a56102023660046110c5565b610467565b6101906104ac565b6007546001600160a01b0316610165565b6101456104bf565b6101906102363660046110de565b6104ce565b610190610249366004611117565b6104d9565b61014561025c366004610f4d565b6104f1565b61012861026f36600461118e565b610572565b6101906102823660046110c5565b61059f565b5f6001600160e01b03198216632483248360e11b14806102ab57506102ab826105dc565b92915050565b60605f80546102bf906111bf565b80601f01602080910402602001604051908101604052809291908181526020018280546102eb906111bf565b80156103365780601f1061030d57610100808354040283529160200191610336565b820191905f5260205f20905b81548152906001019060200180831161031957829003601f168201915b5050505050905090565b5f61034a8261062b565b505f828152600460205260409020546001600160a01b03166102ab565b610372828233610663565b5050565b5f61037f610670565b600880545f918261038f836111f7565b91905055905061039f848261069d565b6103a981846106fe565b9392505050565b6001600160a01b0382166103de57604051633250574960e11b81525f60048201526024015b60405180910390fd5b5f6103ea83833361074d565b9050836001600160a01b0316816001600160a01b031614610438576040516364283d7b60e01b81526001600160a01b03808616600483015260248201849052821660448201526064016103d5565b50505050565b61045883838360405180602001604052805f8152506104d9565b505050565b5f6102ab8261062b565b5f6001600160a01b038216610491576040516322718ad960e21b81525f60048201526024016103d5565b506001600160a01b03165f9081526003602052604090205490565b6104b4610670565b6104bd5f61083f565b565b6060600180546102bf906111bf565b610372338383610890565b6104e48484846103b0565b6104383385858585610957565b60606104fc8261062b565b505f61051260408051602081019091525f815290565b90505f61051e84610a7f565b905081515f0361052f579392505050565b80511561056157818160405160200161054992919061121b565b60405160208183030381529060405292505050919050565b61056a84610b1e565b949350505050565b6001600160a01b039182165f90815260056020908152604080832093909416825291909152205460ff1690565b6105a7610670565b6001600160a01b0381166105d057604051631e4fbdf760e01b81525f60048201526024016103d5565b6105d98161083f565b50565b5f6001600160e01b031982166380ac58cd60e01b148061060c57506001600160e01b03198216635b5e139f60e01b145b806102ab57506301ffc9a760e01b6001600160e01b03198316146102ab565b5f818152600260205260408120546001600160a01b0316806102ab57604051637e27328960e01b8152600481018490526024016103d5565b6104588383836001610b8e565b6007546001600160a01b031633146104bd5760405163118cdaa760e01b81523360048201526024016103d5565b6001600160a01b0382166106c657604051633250574960e11b81525f60048201526024016103d5565b5f6106d283835f61074d565b90506001600160a01b03811615610458576040516339e3563760e11b81525f60048201526024016103d5565b5f828152600660205260409020610715828261128d565b506040518281527ff8e1a15aba9398e019f0b49df1a4fde98ee17ae345cb5f6b5e2c27f5033e8ce79060200160405180910390a15050565b5f828152600260205260408120546001600160a01b039081169083161561077957610779818486610c92565b6001600160a01b038116156107b3576107945f855f80610b8e565b6001600160a01b0381165f90815260036020526040902080545f190190555b6001600160a01b038516156107e1576001600160a01b0385165f908152600360205260409020805460010190555b5f8481526002602052604080822080546001600160a01b0319166001600160a01b0389811691821790925591518793918516917fddf252ad1be2c89b69c2b068fc378daa952ba7f163c4a11628f55a4df523b3ef91a4949350505050565b600780546001600160a01b038381166001600160a01b0319831681179093556040519116919082907f8be0079c531659141344cd1fd0a4f28419497f9722a3daafe3b4186f6b6457e0905f90a35050565b6001600160a01b0383166108b95760405163a9fbf51f60e01b81525f60048201526024016103d5565b6001600160a01b0382166108eb57604051630b61174360e31b81526001600160a01b03831660048201526024016103d5565b6001600160a01b038381165f81815260056020908152604080832094871680845294825291829020805460ff191686151590811790915591519182527f17307eab39ab6107e8899845ad3d59bd9653f200f220920489ca2b5937696c31910160405180910390a3505050565b6001600160a01b0383163b15610a7857604051630a85bd0160e11b81526001600160a01b0384169063150b7a0290610999908890889087908790600401611349565b6020604051808303815f875af19250505080156109d3575060408051601f3d908101601f191682019092526109d091810190611385565b60015b610a3a573d808015610a00576040519150601f19603f3d011682016040523d82523d5f602084013e610a05565b606091505b5080515f03610a3257604051633250574960e11b81526001600160a01b03851660048201526024016103d5565b805160208201fd5b6001600160e01b03198116630a85bd0160e11b14610a7657604051633250574960e11b81526001600160a01b03851660048201526024016103d5565b505b5050505050565b5f818152600660205260409020805460609190610a9b906111bf565b80601f0160208091040260200160405190810160405280929190818152602001828054610ac7906111bf565b8015610b125780601f10610ae957610100808354040283529160200191610b12565b820191905f5260205f20905b815481529060010190602001808311610af557829003601f168201915b50505050509050919050565b6060610b298261062b565b505f610b3f60408051602081019091525f815290565b90505f815111610b5d5760405180602001604052805f8152506103a9565b80610b6784610cf6565b604051602001610b7892919061121b565b6040516020818303038152906040529392505050565b8080610ba257506001600160a01b03821615155b15610c63575f610bb18461062b565b90506001600160a01b03831615801590610bdd5750826001600160a01b0316816001600160a01b031614155b8015610bf05750610bee8184610572565b155b15610c195760405163a9fbf51f60e01b81526001600160a01b03841660048201526024016103d5565b8115610c615783856001600160a01b0316826001600160a01b03167f8c5be1e5ebec7d5bd14f71427d1e84f3dd0314c0f7b2291e5b200ac8c7c3b92560405160405180910390a45b505b50505f90815260046020526040902080546001600160a01b0319166001600160a01b0392909216919091179055565b610c9d838383610d86565b610458576001600160a01b038316610ccb57604051637e27328960e01b8152600481018290526024016103d5565b60405163177e802f60e01b81526001600160a01b0383166004820152602481018290526044016103d5565b60605f610d0283610de7565b60010190505f8167ffffffffffffffff811115610d2157610d21610fa7565b6040519080825280601f01601f191660200182016040528015610d4b576020820181803683370190505b5090508181016020015b5f19016f181899199a1a9b1b9c1cb0b131b232b360811b600a86061a8153600a8504945084610d5557509392505050565b5f6001600160a01b0383161580159061056a5750826001600160a01b0316846001600160a01b03161480610dbf5750610dbf8484610572565b8061056a5750505f908152600460205260409020546001600160a01b03908116911614919050565b5f8072184f03e93ff9f4daa797ed6e38ed64bf6a1f0160401b8310610e255772184f03e93ff9f4daa797ed6e38ed64bf6a1f0160401b830492506040015b6d04ee2d6d415b85acef81000000008310610e51576d04ee2d6d415b85acef8100000000830492506020015b662386f26fc100008310610e6f57662386f26fc10000830492506010015b6305f5e1008310610e87576305f5e100830492506008015b6127108310610e9b57612710830492506004015b60648310610ead576064830492506002015b600a83106102ab5760010192915050565b6001600160e01b0319811681146105d9575f80fd5b5f60208284031215610ee3575f80fd5b81356103a981610ebe565b5f5b83811015610f08578181015183820152602001610ef0565b50505f910152565b5f8151808452610f27816020860160208601610eee565b601f01601f19169290920160200192915050565b602081525f6103a96020830184610f10565b5f60208284031215610f5d575f80fd5b5035919050565b80356001600160a01b0381168114610f7a575f80fd5b919050565b5f8060408385031215610f90575f80fd5b610f9983610f64565b946020939093013593505050565b634e487b7160e01b5f52604160045260245ffd5b5f67ffffffffffffffff80841115610fd557610fd5610fa7565b604051601f8501601f19908116603f01168101908282118183101715610ffd57610ffd610fa7565b81604052809350858152868686011115611015575f80fd5b858560208301375f602087830101525050509392505050565b5f806040838503121561103f575f80fd5b61104883610f64565b9150602083013567ffffffffffffffff811115611063575f80fd5b8301601f81018513611073575f80fd5b61108285823560208401610fbb565b9150509250929050565b5f805f6060848603121561109e575f80fd5b6110a784610f64565b92506110b560208501610f64565b9150604084013590509250925092565b5f602082840312156110d5575f80fd5b6103a982610f64565b5f80604083850312156110ef575f80fd5b6110f883610f64565b91506020830135801515811461110c575f80fd5b809150509250929050565b5f805f806080858703121561112a575f80fd5b61113385610f64565b935061114160208601610f64565b925060408501359150606085013567ffffffffffffffff811115611163575f80fd5b8501601f81018713611173575f80fd5b61118287823560208401610fbb565b91505092959194509250565b5f806040838503121561119f575f80fd5b6111a883610f64565b91506111b660208401610f64565b90509250929050565b600181811c908216806111d357607f821691505b6020821081036111f157634e487b7160e01b5f52602260045260245ffd5b50919050565b5f6001820161121457634e487b7160e01b5f52601160045260245ffd5b5060010190565b5f835161122c818460208801610eee565b835190830190611240818360208801610eee565b01949350505050565b601f82111561045857805f5260205f20601f840160051c8101602085101561126e5750805b601f840160051c820191505b81811015610a78575f815560010161127a565b815167ffffffffffffffff8111156112a7576112a7610fa7565b6112bb816112b584546111bf565b84611249565b602080601f8311600181146112ee575f84156112d75750858301515b5f19600386901b1c1916600185901b178555610a76565b5f85815260208120601f198616915b8281101561131c578886015182559484019460019091019084016112fd565b508582101561133957878501515f19600388901b60f8161c191681555b5050505050600190811b01905550565b6001600160a01b03858116825284166020820152604081018390526080606082018190525f9061137b90830184610f10565b9695505050505050565b5f60208284031215611395575f80fd5b81516103a981610ebe56fea2646970667358221220ca3c5de9041ef8cdc31046bcf70b91e864b592da0375d3ee64fb95175b601b0864736f6c63430008180033","linkReferences":{}},"methodIdentifiers":{"approve(address,uint256)":"095ea7b3","balanceOf(address)":"70a08231","getApproved(uint256)":"081812fc","isApprovedForAll(address,address)":"e985e9c5","mintNft(address,string)":"11f87b19","name()":"06fdde03","owner()":"8da5cb5b","ownerOf(uint256)":"6352211e","renounceOwnership()":"715018a6","safeTransferFrom(address,address,uint256)":"42842e0e","safeTransferFrom(address,address,uint256,bytes)":"b88d4fde","setApprovalForAll(address,bool)":"a22cb465","supportsInterface(bytes4)":"01ffc9a7","symbol()":"95d89b41","tokenURI(uint256)":"c87b56dd","totalSupply()":"18160ddd","transferFrom(address,address,uint256)":"23b872dd","transferOwnership(address)":"f2fde38b"},"id":41}