{"abi":[{"type":"constructor","inputs":[],"stateMutability":"nonpayable"},{"type":"function","name":"buyMarketItem","inputs":[{"name":"marketItemId","type":"uint256","internalType":"uint256"}],"outputs":[],"stateMutability":"payable"},{"type":"function","name":"cancelMarketItem","inputs":[{"name":"marketItemId","type":"uint256","internalType":"uint256"}],"outputs":[],"stateMutability":"nonpayable"},{"type":"function","name":"createMarketItem","inputs":[{"name":"nftContract","type":"address","internalType":"address"},{"name":"tokenId","type":"uint256","internalType":"uint256"},{"name":"price","type":"uint256","internalType":"uint256"}],"outputs":[],"stateMutability":"nonpayable"},{"type":"function","name":"getActiveListings","inputs":[],"outputs":[{"name":"","type":"tuple[]","internalType":"struct NFTMarketplace.MarketItem[]","components":[{"name":"marketItemId","type":"uint256","internalType":"uint256"},{"name":"tokenId","type":"uint256","internalType":"uint256"},{"name":"nftContract","type":"address","internalType":"address"},{"name":"seller","type":"address","internalType":"address"},{"name":"owner","type":"address","internalType":"address"},{"name":"price","type":"uint256","internalType":"uint256"},{"name":"sold","type":"bool","internalType":"bool"}]}],"stateMutability":"view"},{"type":"function","name":"getMarketItem","inputs":[{"name":"marketItemId","type":"uint256","internalType":"uint256"}],"outputs":[{"name":"tokenId","type":"uint256","internalType":"uint256"},{"name":"nftContract","type":"address","internalType":"address"},{"name":"seller","type":"address","internalType":"address"},{"name":"owner","type":"address","internalType":"address"},{"name":"price","type":"uint256","internalType":"uint256"},{"name":"sold","type":"bool","internalType":"bool"}],"stateMutability":"view"},{"type":"function","name":"owner","inputs":[],"outputs":[{"name":"","type":"address","internalType":"address"}],"stateMutability":"view"},{"type":"function","name":"renounceOwnership","inputs":[],"outputs":[],"stateMutability":"nonpayable"},{"type":"function","name":"transferOwnership","inputs":[{"name":"newOwner","type":"address","internalType":"address"}],"outputs":[],"stateMutability":"nonpayable"},{"type":"event","name":"MarketItemCancelled","inputs":[{"name":"marketItemId","type":"uint256","indexed":true,"internalType":"uint256"},{"name":"nftContract","type":"address","indexed":true,"internalType":"address"},{"name":"tokenId","type":"uint256","indexed":true,"internalType":"uint256"},{"name":"seller","type":"address","indexed":false,"internalType":"address"}],"anonymous":false},{"type":"event","name":"MarketItemCreated","inputs":[{"name":"marketItemId","type":"uint256","indexed":true,"internalType":"uint256"},{"name":"nftContract","type":"address","indexed":true,"internalType":"address"},{"name":"tokenId","type":"uint256","indexed":true,"internalType":"uint256"},{"name":"seller","type":"address","indexed":false,"internalType":"address"},{"name":"owner","type":"address","indexed":false,"internalType":"address"},{"name":"price","type":"uint256","indexed":false,"internalType":"uint256"}],"anonymous":false},{"type":"event","name":"MarketItemSold","inputs":[{"name":"marketItemId","type":"uint256","indexed":true,"internalType":"uint256"},{"name":"nftContract","type":"address","indexed":true,"internalType":"address"},{"name":"tokenId","type":"uint256","indexed":true,"internalType":"uint256"},{"name":"seller","type":"address","indexed":false,"internalType":"address"},{"name":"buyer","type":"address","indexed":false,"internalType":"address"},{"name":"price","type":"uint256","indexed":false,"internalType":"uint256"}],"anonymous":false},{"type":"event","name":"OwnershipTransferred","inputs":[{"name":"previousOwner","type":"address","indexed":true,"internalType":"address"},{"name":"newOwner","type":"address","indexed":true,"internalType":"address"}],"anonymous":false},{"type":"error","name":"OwnableInvalidOwner","inputs":[{"name":"owner","type":"address","internalType":"address"}]},{"type":"error","name":"OwnableUnauthorizedAccount","inputs":[{"name":"account","type":"address","internalType":"address"}]},{"type":"error","name":"ReentrancyGuardReentrantCall","inputs":[]}],"bytecode":{"object":"0x608060405234801561000f575f80fd5b50338061003557604051631e4fbdf760e01b81525f600482015260240160405180910390fd5b61003e81610068565b5060017f9b779b17422d0df92223018b32b4d1fa46e071723d6817e2486d003becc55f00556100b7565b5f80546001600160a01b038381166001600160a01b0319831681178455604051919092169283917f8be0079c531659141344cd1fd0a4f28419497f9722a3daafe3b4186f6b6457e09190a35050565b610fb2806100c45f395ff3fe608060405260043610610079575f3560e01c80638da5cb5b1161004c5780638da5cb5b146100ef578063a6e22b0214610115578063c7be7a4914610134578063f2fde38b1461020d575f80fd5b8063351901c31461007d57806358eb2df514610092578063715018a6146100b157806387c35bc0146100c5575b5f80fd5b61009061008b366004610da3565b61022c565b005b34801561009d575f80fd5b506100906100ac366004610dce565b6104ea565b3480156100bc575f80fd5b50610090610926565b3480156100d0575f80fd5b506100d9610939565b6040516100e69190610e00565b60405180910390f35b3480156100fa575f80fd5b505f546040516001600160a01b0390911681526020016100e6565b348015610120575f80fd5b5061009061012f366004610da3565b610b1b565b34801561013f575f80fd5b506101ce61014e366004610da3565b5f90815260026020818152604092839020835160e081018552815481526001820154928101839052928101546001600160a01b039081169484018590526003820154811660608501819052600483015490911660808501819052600583015460a0860181905260069093015460ff16151560c09095018590529295909390565b604080519687526001600160a01b03958616602088015293851693860193909352921660608401526080830191909152151560a082015260c0016100e6565b348015610218575f80fd5b50610090610227366004610e93565b610ca4565b610234610cde565b5f818152600260205260409020600581015461028d5760405162461bcd60e51b8152602060048201526013602482015272125d195b48191bd95cc81b9bdd08195e1a5cdd606a1b60448201526064015b60405180910390fd5b600681015460ff16156102d65760405162461bcd60e51b8152602060048201526011602482015270125d195b48185b1c9958591e481cdbdb19607a1b6044820152606401610284565b80600501543410156103215760405162461bcd60e51b8152602060048201526014602482015273125b9cdd59999a58da595b9d081c185e5b595b9d60621b6044820152606401610284565b600381015460028201546001830154604051632142170760e11b81526001600160a01b0393841660048201819052336024830152604482019290925290929091169081906342842e0e906064015f604051808303815f87803b158015610385575f80fd5b505af1158015610397573d5f803e3d5ffd5b50505060068401805460ff1990811660019081179092556004860180546001600160a01b0319163317905560028601546001600160a01b039081165f908152600360209081526040808320958a01548352949052838120805490931690925560058701549251908616935082156108fc029291818181858888f19350505050158015610425573d5f803e3d5ffd5b50826005015434111561046e57600583015433906108fc906104479034610ec9565b6040518115909202915f818181858888f1935050505015801561046c573d5f803e3d5ffd5b505b600183015460028401546005850154604080516001600160a01b038781168252336020830152918101929092529091169086907f6a5f9d2b6ff1f375ebe095556dc91e68fce80a6187d7527cce81c3ab02726c9c9060600160405180910390a45050506104e760015f80516020610f5d83398151915255565b50565b6104f2610cde565b5f81116105415760405162461bcd60e51b815260206004820152601c60248201527f5072696365206d7573742062652067726561746572207468616e2030000000006044820152606401610284565b6001600160a01b0383165f90815260036020908152604080832085845290915290205460ff16156105aa5760405162461bcd60e51b8152602060048201526013602482015272125d195b48185b1c9958591e481b1a5cdd1959606a1b6044820152606401610284565b6040516331a9108f60e11b815260048101839052839033906001600160a01b03831690636352211e90602401602060405180830381865afa1580156105f1573d5f803e3d5ffd5b505050506040513d601f19601f820116820180604052508101906106159190610ee2565b6001600160a01b0316146106645760405162461bcd60e51b8152602060048201526016602482015275165bdd48191bdb89dd081bdddb881d1a1a5cc813919560521b6044820152606401610284565b60405163e985e9c560e01b81523360048201523060248201526001600160a01b0382169063e985e9c590604401602060405180830381865afa1580156106ac573d5f803e3d5ffd5b505050506040513d601f19601f820116820180604052508101906106d09190610efd565b61071c5760405162461bcd60e51b815260206004820152601860248201527f4d61726b6574706c616365206e6f7420617070726f76656400000000000000006044820152606401610284565b60018054905f61072b83610f1c565b91905055505f60015490506040518060e00160405280828152602001858152602001866001600160a01b03168152602001336001600160a01b031681526020015f6001600160a01b031681526020018481526020015f151581525060025f8381526020019081526020015f205f820151815f0155602082015181600101556040820151816002015f6101000a8154816001600160a01b0302191690836001600160a01b031602179055506060820151816003015f6101000a8154816001600160a01b0302191690836001600160a01b031602179055506080820151816004015f6101000a8154816001600160a01b0302191690836001600160a01b0316021790555060a0820151816005015560c0820151816006015f6101000a81548160ff021916908315150217905550905050600160035f876001600160a01b03166001600160a01b031681526020019081526020015f205f8681526020019081526020015f205f6101000a81548160ff02191690831515021790555083856001600160a01b0316827f2ad024d53a0dc50c130967f8d4941927ee087ea31394cebb2b9599d3706c9c00335f88604051610901939291906001600160a01b039384168152919092166020820152604081019190915260600190565b60405180910390a4505061092160015f80516020610f5d83398151915255565b505050565b61092e610cf9565b6109375f610d25565b565b60605f60015b600154811161099d575f8181526002602052604090206006015460ff1615801561097857505f8181526002602052604090206005015415155b1561098b578161098781610f1c565b9250505b8061099581610f1c565b91505061093f565b505f8167ffffffffffffffff8111156109b8576109b8610f34565b604051908082528060200260200182016040528015610a1d57816020015b6040805160e0810182525f8082526020808301829052928201819052606082018190526080820181905260a0820181905260c082015282525f199092019101816109d65790505b5090505f60015b6001548111610b12575f8181526002602052604090206006015460ff16158015610a5d57505f8181526002602052604090206005015415155b15610b00575f81815260026020818152604092839020835160e08101855281548152600182015492810192909252918201546001600160a01b039081169382019390935260038201548316606082015260048201549092166080830152600581015460a08301526006015460ff16151560c08201528351849084908110610ae657610ae6610f48565b60200260200101819052508180610afc90610f1c565b9250505b80610b0a81610f1c565b915050610a24565b50909392505050565b610b23610cde565b5f81815260026020526040902060038101546001600160a01b03163314610b7d5760405162461bcd60e51b815260206004820152600e60248201526d2737ba103a34329039b2b63632b960911b6044820152606401610284565b600681015460ff1615610bc65760405162461bcd60e51b8152602060048201526011602482015270125d195b48185b1c9958591e481cdbdb19607a1b6044820152606401610284565b600281810180546001600160a01b039081165f9081526003602081815260408084206001808a0180548752918452828620805460ff199081169091558b875289855283872087815591820187905598810180546001600160a01b0319908116909155948101805486169055600481018054909516909455600584019490945560069092018054909616909555905492549051338152929391169185917f7e33402d81dad5d2e38cfd6a768a02df47b23f996acf69c1486b66511a3c8992910160405180910390a4506104e760015f80516020610f5d83398151915255565b610cac610cf9565b6001600160a01b038116610cd557604051631e4fbdf760e01b81525f6004820152602401610284565b6104e781610d25565b610ce6610d74565b60025f80516020610f5d83398151915255565b5f546001600160a01b031633146109375760405163118cdaa760e01b8152336004820152602401610284565b5f80546001600160a01b038381166001600160a01b0319831681178455604051919092169283917f8be0079c531659141344cd1fd0a4f28419497f9722a3daafe3b4186f6b6457e09190a35050565b5f80516020610f5d8339815191525460020361093757604051633ee5aeb560e01b815260040160405180910390fd5b5f60208284031215610db3575f80fd5b5035919050565b6001600160a01b03811681146104e7575f80fd5b5f805f60608486031215610de0575f80fd5b8335610deb81610dba565b95602085013595506040909401359392505050565b602080825282518282018190525f919060409081850190868401855b82811015610e86578151805185528681015187860152858101516001600160a01b03908116878701526060808301518216908701526080808301519091169086015260a0808201519086015260c09081015115159085015260e09093019290850190600101610e1c565b5091979650505050505050565b5f60208284031215610ea3575f80fd5b8135610eae81610dba565b9392505050565b634e487b7160e01b5f52601160045260245ffd5b81810381811115610edc57610edc610eb5565b92915050565b5f60208284031215610ef2575f80fd5b8151610eae81610dba565b5f60208284031215610f0d575f80fd5b81518015158114610eae575f80fd5b5f60018201610f2d57610f2d610eb5565b5060010190565b634e487b7160e01b5f52604160045260245ffd5b634e487b7160e01b5f52603260045260245ffdfe9b779b17422d0df92223018b32b4d1fa46e071723d6817e2486d003becc55f00a26469706673582212202715098e9eb1998dbd175445d26666fb6f7110701fe318c7fca875617d9bbb6464736f6c63430008180033","linkReferences":{}},"methodIdentifiers":{"buyMarketItem(uint256)":"351901c3","cancelMarketItem(uint256)":"a6e22b02","createMarketItem(address,uint256,uint256)":"58eb2df5","getActiveListings()":"87c35bc0","getMarketItem(uint256)":"c7be7a49","owner()":"8da5cb5b","renounceOwnership()":"715018a6","transferOwnership(address)":"f2fde38b"},"id":44}